{
  "contractName": "Election",
  "abi": [
    {
      "inputs": [],
      "payable": false,
      "stateMutability": "nonpayable",
      "type": "constructor"
    },
    {
      "anonymous": false,
      "inputs": [
        {
          "indexed": true,
          "internalType": "uint256",
          "name": "_candidateID",
          "type": "uint256"
        }
      ],
      "name": "votedEvent",
      "type": "event"
    },
    {
      "anonymous": false,
      "inputs": [
        {
          "indexed": true,
          "internalType": "address",
          "name": "voter",
          "type": "address"
        }
      ],
      "name": "whiteListEvent",
      "type": "event"
    },
    {
      "constant": true,
      "inputs": [
        {
          "internalType": "uint256",
          "name": "",
          "type": "uint256"
        }
      ],
      "name": "candidates",
      "outputs": [
        {
          "internalType": "uint256",
          "name": "id",
          "type": "uint256"
        },
        {
          "internalType": "string",
          "name": "name",
          "type": "string"
        },
        {
          "internalType": "uint256",
          "name": "totalVotes",
          "type": "uint256"
        }
      ],
      "payable": false,
      "stateMutability": "view",
      "type": "function"
    },
    {
      "constant": true,
      "inputs": [
        {
          "internalType": "address",
          "name": "",
          "type": "address"
        }
      ],
      "name": "eligible",
      "outputs": [
        {
          "internalType": "bool",
          "name": "",
          "type": "bool"
        }
      ],
      "payable": false,
      "stateMutability": "view",
      "type": "function"
    },
    {
      "constant": true,
      "inputs": [],
      "name": "owner",
      "outputs": [
        {
          "internalType": "address",
          "name": "",
          "type": "address"
        }
      ],
      "payable": false,
      "stateMutability": "view",
      "type": "function"
    },
    {
      "constant": true,
      "inputs": [],
      "name": "totalCandidates",
      "outputs": [
        {
          "internalType": "uint256",
          "name": "",
          "type": "uint256"
        }
      ],
      "payable": false,
      "stateMutability": "view",
      "type": "function"
    },
    {
      "constant": true,
      "inputs": [],
      "name": "totalEligable",
      "outputs": [
        {
          "internalType": "uint256",
          "name": "",
          "type": "uint256"
        }
      ],
      "payable": false,
      "stateMutability": "view",
      "type": "function"
    },
    {
      "constant": true,
      "inputs": [
        {
          "internalType": "address",
          "name": "",
          "type": "address"
        }
      ],
      "name": "voted",
      "outputs": [
        {
          "internalType": "bool",
          "name": "",
          "type": "bool"
        }
      ],
      "payable": false,
      "stateMutability": "view",
      "type": "function"
    },
    {
      "constant": false,
      "inputs": [
        {
          "internalType": "address",
          "name": "voter",
          "type": "address"
        }
      ],
      "name": "giveVoterRights",
      "outputs": [],
      "payable": false,
      "stateMutability": "nonpayable",
      "type": "function"
    },
    {
      "constant": false,
      "inputs": [
        {
          "internalType": "uint256",
          "name": "_candidateID",
          "type": "uint256"
        }
      ],
      "name": "vote",
      "outputs": [],
      "payable": false,
      "stateMutability": "nonpayable",
      "type": "function"
    }
  ],
  "bytecode": "0x60806040526000600255600060045534801561001a57600080fd5b5033600560006101000a81548173ffffffffffffffffffffffffffffffffffffffff021916908373ffffffffffffffffffffffffffffffffffffffff1602179055506100a06040518060400160405280600881526020017f416268697368656b00000000000000000000000000000000000000000000000081525061017160201b60201c565b6100e46040518060400160405280600681526020017f416268697468000000000000000000000000000000000000000000000000000081525061017160201b60201c565b6101286040518060400160405280600481526020017f4172756e0000000000000000000000000000000000000000000000000000000081525061017160201b60201c565b61016c6040518060400160405280600581526020017f456477696e00000000000000000000000000000000000000000000000000000081525061017160201b60201c565b610301565b61018460025460016101f360201b60201c565b60028190555060405180606001604052806002548152602001828152602001600081525060008060025481526020019081526020016000206000820151816000015560208201518160010190805190602001906101e292919061025c565b506040820151816002015590505050565b6000818301905082811015610253576040517f08c379a0000000000000000000000000000000000000000000000000000000008152600401808060200182810382526031815260200180610c9b6031913960400191505060405180910390fd5b80905092915050565b828054600181600116156101000203166002900490600052602060002090601f016020900481019282601f1061029d57805160ff19168380011785556102cb565b828001600101855582156102cb579182015b828111156102ca5782518255916020019190600101906102af565b5b5090506102d891906102dc565b5090565b6102fe91905b808211156102fa5760008160009055506001016102e2565b5090565b90565b61098b806103106000396000f3fe608060405234801561001057600080fd5b50600436106100885760003560e01c80633866965c1161005b5780633866965c146101ea5780638da5cb5b1461020857806396ecbcc814610252578063aec2ccae1461029657610088565b80630121b93f1461008d5780630713b139146100bb5780630cfc5bce146101175780633477ee2e14610135575b600080fd5b6100b9600480360360208110156100a357600080fd5b81019080803590602001909291905050506102f2565b005b6100fd600480360360208110156100d157600080fd5b81019080803573ffffffffffffffffffffffffffffffffffffffff16906020019092919050505061047a565b604051808215151515815260200191505060405180910390f35b61011f61049a565b6040518082815260200191505060405180910390f35b6101616004803603602081101561014b57600080fd5b81019080803590602001909291905050506104a0565b6040518084815260200180602001838152602001828103825284818151815260200191508051906020019080838360005b838110156101ad578082015181840152602081019050610192565b50505050905090810190601f1680156101da5780820380516001836020036101000a031916815260200191505b5094505050505060405180910390f35b6101f2610562565b6040518082815260200191505060405180910390f35b610210610568565b604051808273ffffffffffffffffffffffffffffffffffffffff1673ffffffffffffffffffffffffffffffffffffffff16815260200191505060405180910390f35b6102946004803603602081101561026857600080fd5b81019080803573ffffffffffffffffffffffffffffffffffffffff16906020019092919050505061058e565b005b6102d8600480360360208110156102ac57600080fd5b81019080803573ffffffffffffffffffffffffffffffffffffffff169060200190929190505050610848565b604051808215151515815260200191505060405180910390f35b600160003373ffffffffffffffffffffffffffffffffffffffff1673ffffffffffffffffffffffffffffffffffffffff16815260200190815260200160002060009054906101000a900460ff161561034957600080fd5b600360003373ffffffffffffffffffffffffffffffffffffffff1673ffffffffffffffffffffffffffffffffffffffff16815260200190815260200160002060009054906101000a900460ff1661039f57600080fd5b6000811180156103b157506002548111155b6103ba57600080fd5b60018060003373ffffffffffffffffffffffffffffffffffffffff1673ffffffffffffffffffffffffffffffffffffffff16815260200190815260200160002060006101000a81548160ff021916908315150217905550610431600080838152602001908152602001600020600201546001610868565b60008083815260200190815260200160002060020181905550807ffff3c900d938d21d0990d786e819f29b8d05c1ef587b462b939609625b684b1660405160405180910390a250565b60036020528060005260406000206000915054906101000a900460ff1681565b60045481565b6000602052806000526040600020600091509050806000015490806001018054600181600116156101000203166002900480601f0160208091040260200160405190810160405280929190818152602001828054600181600116156101000203166002900480156105525780601f1061052757610100808354040283529160200191610552565b820191906000526020600020905b81548152906001019060200180831161053557829003601f168201915b5050505050908060020154905083565b60025481565b600560009054906101000a900473ffffffffffffffffffffffffffffffffffffffff1681565b600560009054906101000a900473ffffffffffffffffffffffffffffffffffffffff1673ffffffffffffffffffffffffffffffffffffffff163373ffffffffffffffffffffffffffffffffffffffff1614610634576040517f08c379a000000000000000000000000000000000000000000000000000000000815260040180806020018281038252602b815260200180610903602b913960400191505060405180910390fd5b600360008273ffffffffffffffffffffffffffffffffffffffff1673ffffffffffffffffffffffffffffffffffffffff16815260200190815260200160002060009054906101000a900460ff16156106d7576040517f08c379a000000000000000000000000000000000000000000000000000000000815260040180806020018281038252602981526020018061092e6029913960400191505060405180910390fd5b600160008273ffffffffffffffffffffffffffffffffffffffff1673ffffffffffffffffffffffffffffffffffffffff16815260200190815260200160002060009054906101000a900460ff1615610797576040517f08c379a000000000000000000000000000000000000000000000000000000000815260040180806020018281038252601f8152602001807f5468697320616464726573732068617320616c726561647920766f7465642e0081525060200191505060405180910390fd5b6107a46004546001610868565b6004819055506001600360008373ffffffffffffffffffffffffffffffffffffffff1673ffffffffffffffffffffffffffffffffffffffff16815260200190815260200160002060006101000a81548160ff0219169083151502179055508073ffffffffffffffffffffffffffffffffffffffff167f1c1cf50e2a5d39c25b8725b733869929148f07b177c63306d861ea00cec5e73260405160405180910390a250565b60016020528060005260406000206000915054906101000a900460ff1681565b60008183019050828110156108c8576040517f08c379a00000000000000000000000000000000000000000000000000000000081526004018080602001828103825260318152602001806108d26031913960400191505060405180910390fd5b8090509291505056fe4f766572666c6f772077696c6c206f63637572206173206120726573756c74206f662074686973206f7065726174696f6e4f6e6c7920746865206f776e65722063616e206769766520766f74696e67207065726d697373696f6e732e54686973206164647265737320697320616c726561647920656c696769626c6520746f20766f74652ea265627a7a72315820514dac811b8d628528cb183a6e29eadb197d208cbae56783413d2840a77dc46864736f6c634300051000324f766572666c6f772077696c6c206f63637572206173206120726573756c74206f662074686973206f7065726174696f6e",
  "source": "pragma solidity >=0.4.22 <0.8.0;\r\n\r\ncontract Election {\r\n\r\n  struct Candidate {\r\n    uint id;\r\n    string name;\r\n    uint totalVotes;\r\n  }\r\n\r\n  mapping(uint => Candidate) public candidates;\r\n  mapping(address => bool) public voted;\r\n  uint public totalCandidates = 0;\r\n  mapping(address => bool) public eligible;\r\n  uint public totalEligable = 0;\r\n\r\n  address public owner;\r\n\r\n\r\n    event votedEvent(\r\n        uint indexed _candidateID\r\n    );\r\n\r\n    event whiteListEvent(\r\n        address indexed voter\r\n    );\r\n\r\n\r\n  constructor() public {\r\n    owner = msg.sender;\r\n\r\n    createCandidate(\"Abhishek\");\r\n    createCandidate(\"Abhith\");\r\n    createCandidate(\"Arun\");\r\n    createCandidate(\"Edwin\");\r\n\r\n  }\r\n\r\n\r\n\r\n  function giveVoterRights(address voter) public {\r\n    require(\r\n      msg.sender == owner,\r\n      \"Only the owner can give voting permissions.\"\r\n    );\r\n\r\n    require(\r\n      !eligible[voter],\r\n      \"This address is already eligible to vote.\"\r\n    );\r\n\r\n    require(\r\n      !voted[voter],\r\n      \"This address has already voted.\"\r\n    );\r\n\r\n    totalEligable = safeAdd(totalEligable, 1);\r\n    eligible[voter] = true;\r\n    emit whiteListEvent(voter);\r\n  }\r\n\r\n\r\n  function createCandidate(string memory _name) private {\r\n    totalCandidates = safeAdd(totalCandidates, 1);\r\n    candidates[totalCandidates] = Candidate(totalCandidates, _name, 0);\r\n  }\r\n\r\n  function vote(uint _candidateID) public {\r\n    require(!voted[msg.sender]);\r\n    require(eligible[msg.sender]);\r\n    require(_candidateID > 0 && _candidateID <= totalCandidates);\r\n\r\n    voted[msg.sender] = true;\r\n    candidates[_candidateID].totalVotes = safeAdd(candidates[_candidateID].totalVotes, 1);\r\n\r\n    emit votedEvent(_candidateID);\r\n\r\n  }\r\n\r\n  function safeAdd(uint256 a, uint256 b) internal pure returns (uint256 c) {\r\n    c = a + b;\r\n    require(c >= a, \"Overflow will occur as a result of this operation\");\r\n    return c;\r\n  }\r\n}\r\n",
  "sourcePath": "C:\\Users\\Abhi\\Desktop\\SIFOS\\contracts\\Election.sol",
  "compiler": {
    "name": "solc",
    "version": "0.5.16+commit.9c3226ce.Emscripten.clang"
  },
  "schemaVersion": "3.4.7",
  "updatedAt": "2022-05-30T14:15:35.701Z",
  "networkType": "ethereum",
  "devdoc": {
    "methods": {}
  },
  "userdoc": {
    "methods": {}
  }
}